{
  "contractName": "Demo",
  "abi": [
    {
      "inputs": [],
      "stateMutability": "nonpayable",
      "type": "constructor"
    },
    {
      "anonymous": false,
      "inputs": [
        {
          "indexed": false,
          "internalType": "uint256",
          "name": "_id",
          "type": "uint256"
        },
        {
          "indexed": false,
          "internalType": "string",
          "name": "_curp",
          "type": "string"
        },
        {
          "indexed": false,
          "internalType": "string",
          "name": "_playground",
          "type": "string"
        }
      ],
      "name": "AtestacionAdded",
      "type": "event"
    },
    {
      "inputs": [
        {
          "internalType": "string",
          "name": "_curp",
          "type": "string"
        },
        {
          "internalType": "string",
          "name": "_playground",
          "type": "string"
        }
      ],
      "name": "Atestacion",
      "outputs": [],
      "stateMutability": "nonpayable",
      "type": "function"
    },
    {
      "inputs": [
        {
          "internalType": "string",
          "name": "_curp",
          "type": "string"
        }
      ],
      "name": "SearchByCurp",
      "outputs": [
        {
          "internalType": "string[]",
          "name": "",
          "type": "string[]"
        }
      ],
      "stateMutability": "view",
      "type": "function"
    },
    {
      "inputs": [
        {
          "internalType": "uint256",
          "name": "_id",
          "type": "uint256"
        }
      ],
      "name": "SearchByID",
      "outputs": [
        {
          "internalType": "string[]",
          "name": "",
          "type": "string[]"
        }
      ],
      "stateMutability": "view",
      "type": "function"
    }
  ],
  "bytecode": "0x608060405234801561001057600080fd5b50336000806101000a81548173ffffffffffffffffffffffffffffffffffffffff021916908373ffffffffffffffffffffffffffffffffffffffff160217905550610a7e806100606000396000f3fe608060405234801561001057600080fd5b50600436106100415760003560e01c8063417619a21461004657806351937f4d1461006257806391325ba314610092575b600080fd5b610060600480360381019061005b91906105bb565b6100c2565b005b61007c60048036038101906100779190610669565b61019a565b60405161008991906107e0565b60405180910390f35b6100ac60048036038101906100a79190610802565b6102a3565b6040516100b991906107e0565b60405180910390f35b6100cc600161039a565b60006100d860016103b0565b90506002836040516100ea9190610887565b9081526020016040518091039020829080600181540180825580915050600190039060005260206000200160009091909190915090805190602001906101319291906103be565b50826003600083815260200190815260200160002090805190602001906101599291906103be565b507f1faf201e209e6244f8b852de3e79b01bc3b618f5da7fe486747276a701c36a4e81848460405161018d939291906108f7565b60405180910390a1505050565b60606002600360008481526020019081526020016000206040516101be9190610a31565b9081526020016040518091039020805480602002602001604051908101604052809291908181526020016000905b8282101561029857838290600052602060002001805461020b9061096b565b80601f01602080910402602001604051908101604052809291908181526020018280546102379061096b565b80156102845780601f1061025957610100808354040283529160200191610284565b820191906000526020600020905b81548152906001019060200180831161026757829003601f168201915b5050505050815260200190600101906101ec565b505050509050919050565b60606002826040516102b59190610887565b9081526020016040518091039020805480602002602001604051908101604052809291908181526020016000905b8282101561038f5783829060005260206000200180546103029061096b565b80601f016020809104026020016040519081016040528092919081815260200182805461032e9061096b565b801561037b5780601f106103505761010080835404028352916020019161037b565b820191906000526020600020905b81548152906001019060200180831161035e57829003601f168201915b5050505050815260200190600101906102e3565b505050509050919050565b6001816000016000828254019250508190555050565b600081600001549050919050565b8280546103ca9061096b565b90600052602060002090601f0160209004810192826103ec5760008555610433565b82601f1061040557805160ff1916838001178555610433565b82800160010185558215610433579182015b82811115610432578251825591602001919060010190610417565b5b5090506104409190610444565b5090565b5b8082111561045d576000816000905550600101610445565b5090565b6000604051905090565b600080fd5b600080fd5b600080fd5b600080fd5b6000601f19601f8301169050919050565b7f4e487b7100000000000000000000000000000000000000000000000000000000600052604160045260246000fd5b6104c88261047f565b810181811067ffffffffffffffff821117156104e7576104e6610490565b5b80604052505050565b60006104fa610461565b905061050682826104bf565b919050565b600067ffffffffffffffff82111561052657610525610490565b5b61052f8261047f565b9050602081019050919050565b82818337600083830152505050565b600061055e6105598461050b565b6104f0565b90508281526020810184848401111561057a5761057961047a565b5b61058584828561053c565b509392505050565b600082601f8301126105a2576105a1610475565b5b81356105b284826020860161054b565b91505092915050565b600080604083850312156105d2576105d161046b565b5b600083013567ffffffffffffffff8111156105f0576105ef610470565b5b6105fc8582860161058d565b925050602083013567ffffffffffffffff81111561061d5761061c610470565b5b6106298582860161058d565b9150509250929050565b6000819050919050565b61064681610633565b811461065157600080fd5b50565b6000813590506106638161063d565b92915050565b60006020828403121561067f5761067e61046b565b5b600061068d84828501610654565b91505092915050565b600081519050919050565b600082825260208201905092915050565b6000819050602082019050919050565b600081519050919050565b600082825260208201905092915050565b60005b838110156106fc5780820151818401526020810190506106e1565b8381111561070b576000848401525b50505050565b600061071c826106c2565b61072681856106cd565b93506107368185602086016106de565b61073f8161047f565b840191505092915050565b60006107568383610711565b905092915050565b6000602082019050919050565b600061077682610696565b61078081856106a1565b935083602082028501610792856106b2565b8060005b858110156107ce57848403895281516107af858261074a565b94506107ba8361075e565b925060208a01995050600181019050610796565b50829750879550505050505092915050565b600060208201905081810360008301526107fa818461076b565b905092915050565b6000602082840312156108185761081761046b565b5b600082013567ffffffffffffffff81111561083657610835610470565b5b6108428482850161058d565b91505092915050565b600081905092915050565b6000610861826106c2565b61086b818561084b565b935061087b8185602086016106de565b80840191505092915050565b60006108938284610856565b915081905092915050565b6108a781610633565b82525050565b600082825260208201905092915050565b60006108c9826106c2565b6108d381856108ad565b93506108e38185602086016106de565b6108ec8161047f565b840191505092915050565b600060608201905061090c600083018661089e565b818103602083015261091e81856108be565b9050818103604083015261093281846108be565b9050949350505050565b7f4e487b7100000000000000000000000000000000000000000000000000000000600052602260045260246000fd5b6000600282049050600182168061098357607f821691505b602082108114156109975761099661093c565b5b50919050565b60008190508160005260206000209050919050565b600081546109bf8161096b565b6109c9818661084b565b945060018216600081146109e457600181146109f557610a28565b60ff19831686528186019350610a28565b6109fe8561099d565b60005b83811015610a2057815481890152600182019150602081019050610a01565b838801955050505b50505092915050565b6000610a3d82846109b2565b91508190509291505056fea264697066735822122045f2a8b2ff690b4af13e057eb8179129218b080f8c9fe3dcd22e7b7fcbc0d07664736f6c634300080b0033",
  "immutableReferences": {},
  "source": "/*\n  Author: Escudero Caporal Alan Enrique\n  Date: 08/Junio/2022\n  Version: 0.0.1\n*/\npragma solidity >=0.4.22 <0.9.0;\n\nimport \"@openzeppelin/contracts/utils/Counters.sol\";\n\ncontract Demo {\n\n  //State Variables\n  address private contractOwner;\n  using Counters for Counters.Counter;\n  Counters.Counter private _Ids;\n  mapping (string => string[]) internal Atestaciones;\n  mapping (uint256 => string) internal Busqueda;\n\n  //Events\n  event AtestacionAdded(uint256 _id, string _curp, string _playground);\n\n  constructor() public {\n    contractOwner = msg.sender;\n  }\n  \n  function Atestacion(string memory _curp, string memory _playground) external{\n    _Ids.increment();\n    uint256 newItemId = _Ids.current();\n    Atestaciones[_curp].push(_playground);\n    Busqueda[newItemId] = _curp;\n    emit AtestacionAdded(newItemId, _curp, _playground);\n  }\n\n  function SearchByCurp(string memory _curp) external view returns (string[] memory){\n    return (Atestaciones[_curp]);\n  }\n\n  function SearchByID(uint256 _id) external view returns (string[] memory){\n    return (Atestaciones[Busqueda[_id]]);\n  }\n  \n}",
  "sourcePath": "/Users/aescuderoc/Documents/POC/Demo/contracts/solidity/Demo.sol",
  "compiler": {
    "name": "solc",
    "version": "0.8.11+commit.d7f03943.Emscripten.clang"
  },
  "schemaVersion": "3.4.4",
  "updatedAt": "2022-06-14T20:04:18.682Z",
  "devdoc": {
    "kind": "dev",
    "methods": {},
    "version": 1
  },
  "userdoc": {
    "kind": "user",
    "methods": {},
    "version": 1
  }
}